{
  "contractName": "Crowdfunding",
  "abi": [
    {
      "inputs": [],
      "stateMutability": "nonpayable",
      "type": "constructor"
    },
    {
      "inputs": [],
      "name": "author",
      "outputs": [
        {
          "internalType": "address",
          "name": "",
          "type": "address"
        }
      ],
      "stateMutability": "view",
      "type": "function"
    },
    {
      "inputs": [],
      "name": "closed",
      "outputs": [
        {
          "internalType": "bool",
          "name": "",
          "type": "bool"
        }
      ],
      "stateMutability": "view",
      "type": "function"
    },
    {
      "inputs": [],
      "name": "endTime",
      "outputs": [
        {
          "internalType": "uint256",
          "name": "",
          "type": "uint256"
        }
      ],
      "stateMutability": "view",
      "type": "function"
    },
    {
      "inputs": [
        {
          "internalType": "address",
          "name": "",
          "type": "address"
        }
      ],
      "name": "joined",
      "outputs": [
        {
          "internalType": "uint256",
          "name": "",
          "type": "uint256"
        }
      ],
      "stateMutability": "view",
      "type": "function"
    },
    {
      "inputs": [],
      "name": "price",
      "outputs": [
        {
          "internalType": "uint256",
          "name": "",
          "type": "uint256"
        }
      ],
      "stateMutability": "view",
      "type": "function"
    },
    {
      "stateMutability": "payable",
      "type": "receive"
    },
    {
      "inputs": [],
      "name": "getAuthor",
      "outputs": [
        {
          "internalType": "address",
          "name": "",
          "type": "address"
        }
      ],
      "stateMutability": "view",
      "type": "function"
    },
    {
      "inputs": [],
      "name": "withdrawFund",
      "outputs": [],
      "stateMutability": "nonpayable",
      "type": "function"
    },
    {
      "inputs": [],
      "name": "withdraw",
      "outputs": [],
      "stateMutability": "nonpayable",
      "type": "function"
    }
  ],
  "bytecode": "0x6080604052674563918244f400006003556000600460006101000a81548160ff02191690831515021790555034801561003757600080fd5b5073a1d91d7b6bd771c53ef7b7d12805368b46e524676000806101000a81548173ffffffffffffffffffffffffffffffffffffffff021916908373ffffffffffffffffffffffffffffffffffffffff16021790555062278d0042016002819055506108fb806100a76000396000f3fe60806040526004361061007f5760003560e01c8063a5faa1251161004e578063a5faa12514610330578063a6c3e6b914610387578063e07fa3c1146103de578063f887d019146103f55761028f565b80633197cbb6146102945780633ccfd60b146102bf578063597e1fb5146102d6578063a035b1fe146103055761028f565b3661028f57600254421080156100a25750600460009054906101000a900460ff16155b610114576040517f08c379a000000000000000000000000000000000000000000000000000000000815260040180806020018281038252600f8152602001807fe4bc97e7adb9e5b7b2e7bb93e69d9f000000000000000000000000000000000081525060200191505060405180910390fd5b6000600160003373ffffffffffffffffffffffffffffffffffffffff1673ffffffffffffffffffffffffffffffffffffffff16815260200190815260200160002054146101c9576040517f08c379a00000000000000000000000000000000000000000000000000000000081526004018080602001828103825260188152602001807fe4bda0e5b7b2e7bb8fe58f82e4b88ee8bf87e4bc97e7adb9000000000000000081525060200191505060405180910390fd5b600354341015610241576040517f08c379a000000000000000000000000000000000000000000000000000000000815260040180806020018281038252600f8152602001807fe587bae4bbb7e5a4aae4bd8ee4ba86000000000000000000000000000000000081525060200191505060405180910390fd5b34600160003373ffffffffffffffffffffffffffffffffffffffff1673ffffffffffffffffffffffffffffffffffffffff1681526020019081526020016000208190555061028d61045a565b005b600080fd5b3480156102a057600080fd5b506102a961048e565b6040518082815260200191505060405180910390f35b3480156102cb57600080fd5b506102d4610494565b005b3480156102e257600080fd5b506102eb610659565b604051808215151515815260200191505060405180910390f35b34801561031157600080fd5b5061031a61066c565b6040518082815260200191505060405180910390f35b34801561033c57600080fd5b50610345610672565b604051808273ffffffffffffffffffffffffffffffffffffffff1673ffffffffffffffffffffffffffffffffffffffff16815260200191505060405180910390f35b34801561039357600080fd5b5061039c61069b565b604051808273ffffffffffffffffffffffffffffffffffffffff1673ffffffffffffffffffffffffffffffffffffffff16815260200191505060405180910390f35b3480156103ea57600080fd5b506103f36106c0565b005b34801561040157600080fd5b506104446004803603602081101561041857600080fd5b81019080803573ffffffffffffffffffffffffffffffffffffffff169060200190929190505050610864565b6040518082815260200191505060405180910390f35b6000671bc16d674ec80000670de0b6b3a7640000478161047657fe5b0402905080671bc16d674ec800000160038190555050565b60025481565b600254421161050b576040517f08c379a000000000000000000000000000000000000000000000000000000000815260040180806020018281038252601b8152602001807fe8bf98e69caae588b0e4bc97e7adb9e7bb93e69d9fe697b6e997b4000000000081525060200191505060405180910390fd5b600460009054906101000a900460ff1615610571576040517f08c379a00000000000000000000000000000000000000000000000000000000081526004018080602001828103825260258152602001806108a16025913960400191505060405180910390fd5b47670b1a2bc2ec500000116105d1576040517f08c379a000000000000000000000000000000000000000000000000000000000815260040180806020018281038252602481526020018061087d6024913960400191505060405180910390fd5b3373ffffffffffffffffffffffffffffffffffffffff166108fc600160003373ffffffffffffffffffffffffffffffffffffffff1673ffffffffffffffffffffffffffffffffffffffff168152602001908152602001600020549081150290604051600060405180830381858888f19350505050158015610656573d6000803e3d6000fd5b50565b600460009054906101000a900460ff1681565b60035481565b60008060009054906101000a900473ffffffffffffffffffffffffffffffffffffffff16905090565b6000809054906101000a900473ffffffffffffffffffffffffffffffffffffffff1681565b6000809054906101000a900473ffffffffffffffffffffffffffffffffffffffff1673ffffffffffffffffffffffffffffffffffffffff163373ffffffffffffffffffffffffffffffffffffffff1614610782576040517f08c379a000000000000000000000000000000000000000000000000000000000815260040180806020018281038252600f8152602001807fe4bda0e4b88de698afe4bd9ce88085000000000000000000000000000000000081525060200191505060405180910390fd5b670b1a2bc2ec500000471015610800576040517f08c379a00000000000000000000000000000000000000000000000000000000081526004018080602001828103825260158152602001807fe69caae8bebee588b0e4bc97e7adb9e79baee6a087000000000000000000000081525060200191505060405180910390fd5b6001600460006101000a81548160ff0219169083151502179055503373ffffffffffffffffffffffffffffffffffffffff166108fc479081150290604051600060405180830381858888f19350505050158015610861573d6000803e3d6000fd5b50565b6001602052806000526040600020600091509050548156fee4bc97e7adb9e8bebee6a087efbc8ce4bda0e6b2a1e6b395e68f90e58f96e8b584e98791e4bc97e7adb9e8bebee6a087efbc8c20e4bc97e7adb9e8b584e98791e5b7b2e68f90e58f96a2646970667358221220e3f834421fdbf2f71b385de3b52a927b5501ecfc6306aa8530e158731278c73c64736f6c63430006000033",
  "source": "pragma solidity >=0.6.0 <0.7.0;\ncontract Crowdfunding {\n    // 创作者，公共可见\n    address public author;\n    // 参与金额\n    mapping(address => uint) public joined;\n    // 众筹目标\n    uint constant Target = 0.8 ether;\n    // 众筹截止时间，公共可见\n    uint public endTime;\n    // 记录当前众筹价格\n    uint public price = 5 ether;\n    // 作者提取资金之后，关闭众筹\n    bool public closed = false;\n    // 部署合约时调用构造器，初始化作者及众筹结束时间\n    constructor() public {\n        author = 0xA1D91D7b6Bd771c53eF7B7d12805368B46E52467;\n        endTime = now + 30 days;\n    }\n    function getAuthor() public view returns (address) {\n        return address(author);\n    }\n    // 更新价格，普通链上内部函数定义\n    function updatePrice() internal {\n        uint rise = address(this).balance / 1 ether * 2 ether;\n        price = 2 ether + rise;\n    }\n    // 用户向合约转账时，触发的回调函数\n    receive() external payable {\n        require(now < endTime && !closed , \"众筹已结束\"); //用error类型check\n        require(joined[msg.sender] == 0, \"你已经参与过众筹\");\n        require(msg.value >= price, \"出价太低了\");\n        joined[msg.sender] = msg.value;\n        updatePrice();\n    }\n    // 作者提取资金，供web3.js调用\n    function withdrawFund() external {\n        require(msg.sender == author, \"你不是作者\");\n        require(address(this).balance >= Target, \"未达到众筹目标\");\n        closed = true;\n        msg.sender.transfer(address(this).balance);\n    }\n    /*\n    // 赎回\n    withdraw() {\n      console.log('close:',this.closed);\n      this.crowdFund.withdraw({ // 合约external函数调用\n        from: this.account\n      }).then(() => {\n        this.getCrowdInfo()\n      });\n    },*/\n\n\n    // 读者赎回资金，供web3.js调用\n    function withdraw() external {\n        require(now > endTime, \"还未到众筹结束时间\");\n        require(!closed, \"众筹达标， 众筹资金已提取\");\n        require(Target > address(this).balance, \"众筹达标，你没法提取资金\");\n        msg.sender.transfer(joined[msg.sender]);\n    }\n    /*\n    // 提取资金\n    withdrawFund() {\n      this.crowdFund.withdrawFund({  // 合约external函数调用\n        from: this.account\n      }).then(() => {\n        this.getCrowdInfo()\n      })\n    },\n    */\n}",
  "sourcePath": "/workspaces/from_zero_to_web3/infura_tutorial/truffle_infura/00_truffle_deploy/contracts/Crowdfunding.sol",
  "compiler": {
    "name": "solc",
    "version": "0.6.0+commit.26b70077.Emscripten.clang"
  },
  "schemaVersion": "3.4.7",
  "updatedAt": "2022-07-14T12:03:09.068Z",
  "devdoc": {
    "methods": {}
  },
  "userdoc": {
    "methods": {}
  }
}