{
  "contractName": "Crowdfunding",
  "abi": [
    {
      "inputs": [],
      "stateMutability": "nonpayable",
      "type": "constructor"
    },
    {
      "inputs": [],
      "name": "author",
      "outputs": [
        {
          "internalType": "address",
          "name": "",
          "type": "address"
        }
      ],
      "stateMutability": "view",
      "type": "function",
      "constant": true
    },
    {
      "inputs": [],
      "name": "closed",
      "outputs": [
        {
          "internalType": "bool",
          "name": "",
          "type": "bool"
        }
      ],
      "stateMutability": "view",
      "type": "function",
      "constant": true
    },
    {
      "inputs": [],
      "name": "endTime",
      "outputs": [
        {
          "internalType": "uint256",
          "name": "",
          "type": "uint256"
        }
      ],
      "stateMutability": "view",
      "type": "function",
      "constant": true
    },
    {
      "inputs": [
        {
          "internalType": "address",
          "name": "",
          "type": "address"
        }
      ],
      "name": "joined",
      "outputs": [
        {
          "internalType": "uint256",
          "name": "",
          "type": "uint256"
        }
      ],
      "stateMutability": "view",
      "type": "function",
      "constant": true
    },
    {
      "inputs": [],
      "name": "price",
      "outputs": [
        {
          "internalType": "uint256",
          "name": "",
          "type": "uint256"
        }
      ],
      "stateMutability": "view",
      "type": "function",
      "constant": true
    },
    {
      "stateMutability": "payable",
      "type": "receive",
      "payable": true
    },
    {
      "inputs": [],
      "name": "withdrawFund",
      "outputs": [],
      "stateMutability": "nonpayable",
      "type": "function"
    },
    {
      "inputs": [],
      "name": "withdraw",
      "outputs": [],
      "stateMutability": "nonpayable",
      "type": "function"
    }
  ],
  "bytecode": "0x6080604052671bc16d674ec800006003556000600460006101000a81548160ff02191690831515021790555034801561003757600080fd5b50336000806101000a81548173ffffffffffffffffffffffffffffffffffffffff021916908373ffffffffffffffffffffffffffffffffffffffff16021790555062278d004201600281905550610870806100936000396000f3fe6080604052600436106100745760003560e01c8063a035b1fe1161004e578063a035b1fe146102fa578063a6c3e6b914610325578063e07fa3c11461037c578063f887d0191461039357610284565b80633197cbb6146102895780633ccfd60b146102b4578063597e1fb5146102cb57610284565b3661028457600254421080156100975750600460009054906101000a900460ff16155b610109576040517f08c379a000000000000000000000000000000000000000000000000000000000815260040180806020018281038252600f8152602001807fe4bc97e7adb9e5b7b2e7bb93e69d9f000000000000000000000000000000000081525060200191505060405180910390fd5b6000600160003373ffffffffffffffffffffffffffffffffffffffff1673ffffffffffffffffffffffffffffffffffffffff16815260200190815260200160002054146101be576040517f08c379a00000000000000000000000000000000000000000000000000000000081526004018080602001828103825260188152602001807fe4bda0e5b7b2e7bb8fe58f82e4b88ee8bf87e4bc97e7adb9000000000000000081525060200191505060405180910390fd5b600354341015610236576040517f08c379a000000000000000000000000000000000000000000000000000000000815260040180806020018281038252600f8152602001807fe587bae4bbb7e5a4aae4bd8ee4ba86000000000000000000000000000000000081525060200191505060405180910390fd5b34600160003373ffffffffffffffffffffffffffffffffffffffff1673ffffffffffffffffffffffffffffffffffffffff168152602001908152602001600020819055506102826103f8565b005b600080fd5b34801561029557600080fd5b5061029e61042c565b6040518082815260200191505060405180910390f35b3480156102c057600080fd5b506102c9610432565b005b3480156102d757600080fd5b506102e06105f7565b604051808215151515815260200191505060405180910390f35b34801561030657600080fd5b5061030f61060a565b6040518082815260200191505060405180910390f35b34801561033157600080fd5b5061033a610610565b604051808273ffffffffffffffffffffffffffffffffffffffff1673ffffffffffffffffffffffffffffffffffffffff16815260200191505060405180910390f35b34801561038857600080fd5b50610391610635565b005b34801561039f57600080fd5b506103e2600480360360208110156103b657600080fd5b81019080803573ffffffffffffffffffffffffffffffffffffffff1690602001909291905050506107d9565b6040518082815260200191505060405180910390f35b6000671bc16d674ec80000670de0b6b3a7640000478161041457fe5b0402905080671bc16d674ec800000160038190555050565b60025481565b60025442116104a9576040517f08c379a000000000000000000000000000000000000000000000000000000000815260040180806020018281038252601b8152602001807fe8bf98e69caae588b0e4bc97e7adb9e7bb93e69d9fe697b6e997b4000000000081525060200191505060405180910390fd5b600460009054906101000a900460ff161561050f576040517f08c379a00000000000000000000000000000000000000000000000000000000081526004018080602001828103825260258152602001806108166025913960400191505060405180910390fd5b47678ac7230489e800001161056f576040517f08c379a00000000000000000000000000000000000000000000000000000000081526004018080602001828103825260248152602001806107f26024913960400191505060405180910390fd5b3373ffffffffffffffffffffffffffffffffffffffff166108fc600160003373ffffffffffffffffffffffffffffffffffffffff1673ffffffffffffffffffffffffffffffffffffffff168152602001908152602001600020549081150290604051600060405180830381858888f193505050501580156105f4573d6000803e3d6000fd5b50565b600460009054906101000a900460ff1681565b60035481565b6000809054906101000a900473ffffffffffffffffffffffffffffffffffffffff1681565b6000809054906101000a900473ffffffffffffffffffffffffffffffffffffffff1673ffffffffffffffffffffffffffffffffffffffff163373ffffffffffffffffffffffffffffffffffffffff16146106f7576040517f08c379a000000000000000000000000000000000000000000000000000000000815260040180806020018281038252600f8152602001807fe4bda0e4b88de698afe4bd9ce88085000000000000000000000000000000000081525060200191505060405180910390fd5b678ac7230489e80000471015610775576040517f08c379a00000000000000000000000000000000000000000000000000000000081526004018080602001828103825260158152602001807fe69caae8bebee588b0e4bc97e7adb9e79baee6a087000000000000000000000081525060200191505060405180910390fd5b6001600460006101000a81548160ff0219169083151502179055503373ffffffffffffffffffffffffffffffffffffffff166108fc479081150290604051600060405180830381858888f193505050501580156107d6573d6000803e3d6000fd5b50565b6001602052806000526040600020600091509050548156fee4bc97e7adb9e8bebee6a087efbc8ce4bda0e6b2a1e6b395e68f90e58f96e8b584e98791e4bc97e7adb9e8bebee6a087efbc8c20e4bc97e7adb9e8b584e98791e5b7b2e68f90e58f96a2646970667358221220e25e56674746e27d50fbf258fa4cd842f2ef96ed97457557449363de62f553f964736f6c63430006000033",
  "source": "pragma solidity >=0.6.0 <0.7.0;\ncontract Crowdfunding {\n    // 创作者\n    address public author;\n    // 参与金额\n    mapping(address => uint) public joined;\n    // 众筹目标\n    uint constant Target = 10 ether;\n    // 众筹截止时间\n    uint public endTime;\n    // 记录当前众筹价格\n    uint public price = 2 ether;\n    // 作者提取资金之后，关闭众筹\n    bool public closed = false;\n    // 部署合约时调用，初始化作者及众筹结束时间\n    constructor() public {\n        author = msg.sender;\n        endTime = now + 30 days;\n    }\n    // 更新价格，这是一个内部函数\n    function updatePrice() internal {\n        uint rise = address(this).balance / 1 ether * 2 ether;\n        price = 2 ether + rise;\n    }\n    // 用户向合约转账时，触发的回调函数\n    receive() external payable {\n        require(now < endTime && !closed , \"众筹已结束\");\n        require(joined[msg.sender] == 0, \"你已经参与过众筹\");\n        require(msg.value >= price, \"出价太低了\");\n        joined[msg.sender] = msg.value;\n        updatePrice();\n    }\n    // 作者提取资金\n    function withdrawFund() external {\n        require(msg.sender == author, \"你不是作者\");\n        require(address(this).balance >= Target, \"未达到众筹目标\");\n        closed = true;\n        msg.sender.transfer(address(this).balance);\n    }\n    // 读者赎回资金\n    function withdraw() external {\n        require(now > endTime, \"还未到众筹结束时间\");\n        require(!closed, \"众筹达标， 众筹资金已提取\");\n        require(Target > address(this).balance, \"众筹达标，你没法提取资金\");\n        msg.sender.transfer(joined[msg.sender]);\n    }\n}",
  "sourcePath": "/workspaces/from_zero_to_web3/examples/DApp/crowdfunding/contracts/Crowdfunding.sol",
  "compiler": {
    "name": "solc",
    "version": "0.6.0+commit.26b70077.Emscripten.clang"
  },
  "schemaVersion": "3.4.7",
  "updatedAt": "2022-07-01T08:47:55.102Z",
  "networkType": "ethereum",
  "devdoc": {
    "methods": {}
  },
  "userdoc": {
    "methods": {}
  }
}